{
  "contractName": "Queue",
  "abi": [
    {
      "inputs": [],
      "payable": false,
      "stateMutability": "nonpayable",
      "type": "constructor"
    },
    {
      "anonymous": false,
      "inputs": [],
      "name": "timeEject",
      "type": "event"
    },
    {
      "constant": true,
      "inputs": [],
      "name": "qsize",
      "outputs": [
        {
          "name": "",
          "type": "uint8"
        }
      ],
      "payable": false,
      "stateMutability": "view",
      "type": "function"
    },
    {
      "constant": true,
      "inputs": [],
      "name": "empty",
      "outputs": [
        {
          "name": "",
          "type": "bool"
        }
      ],
      "payable": false,
      "stateMutability": "view",
      "type": "function"
    },
    {
      "constant": true,
      "inputs": [],
      "name": "getFirst",
      "outputs": [
        {
          "name": "",
          "type": "address"
        }
      ],
      "payable": false,
      "stateMutability": "view",
      "type": "function"
    },
    {
      "constant": true,
      "inputs": [],
      "name": "checkPlace",
      "outputs": [
        {
          "name": "",
          "type": "uint8"
        }
      ],
      "payable": false,
      "stateMutability": "view",
      "type": "function"
    },
    {
      "constant": false,
      "inputs": [],
      "name": "checkTime",
      "outputs": [],
      "payable": false,
      "stateMutability": "nonpayable",
      "type": "function"
    },
    {
      "constant": false,
      "inputs": [],
      "name": "dequeue",
      "outputs": [],
      "payable": false,
      "stateMutability": "nonpayable",
      "type": "function"
    },
    {
      "constant": false,
      "inputs": [
        {
          "name": "addr",
          "type": "address"
        }
      ],
      "name": "enqueue",
      "outputs": [],
      "payable": false,
      "stateMutability": "nonpayable",
      "type": "function"
    }
  ],
  "bytecode": "0x606060405261012c600455341561001557600080fd5b60056000806101000a81548160ff021916908360ff16021790555060008060046101000a81548160ff021916908360ff16021790555060008060056101000a81548160ff021916908360ff16021790555060008060026101000a81548160ff0219169083151502179055506001600060036101000a81548160ff02191690831515021790555060008060016101000a81548160ff021916908360ff16021790555061076c806100c56000396000f300606060405260043610610083576000357c0100000000000000000000000000000000000000000000000000000000900463ffffffff1680631e223143146100885780633e3c9eae146100dd5780638f807f6b1461010c578063957908d114610145578063ad7d59fc1461015a578063e0c6190d14610189578063f2a75fe41461019e575b600080fd5b341561009357600080fd5b61009b6101cb565b604051808273ffffffffffffffffffffffffffffffffffffffff1673ffffffffffffffffffffffffffffffffffffffff16815260200191505060405180910390f35b34156100e857600080fd5b6100f0610209565b604051808260ff1660ff16815260200191505060405180910390f35b341561011757600080fd5b610143600480803573ffffffffffffffffffffffffffffffffffffffff1690602001909190505061021f565b005b341561015057600080fd5b610158610419565b005b341561016557600080fd5b61016d6105bb565b604051808260ff1660ff16815260200191505060405180910390f35b341561019457600080fd5b61019c6106e4565b005b34156101a957600080fd5b6101b161072a565b604051808215151515815260200191505060405180910390f35b6000600260008060ff16815260200190815260200160002060009054906101000a900473ffffffffffffffffffffffffffffffffffffffff16905090565b60008060019054906101000a900460ff16905090565b600060029054906101000a900460ff161561023957600080fd5b600060069054906101000a900460ff16600160008373ffffffffffffffffffffffffffffffffffffffff1673ffffffffffffffffffffffffffffffffffffffff16815260200190815260200160002060006101000a81548160ff021916908360ff16021790555080600260008060069054906101000a900460ff1660ff1660ff16815260200190815260200160002060006101000a81548173ffffffffffffffffffffffffffffffffffffffff021916908373ffffffffffffffffffffffffffffffffffffffff160217905550600060069054906101000a900460ff16600060056101000a81548160ff021916908360ff1602179055506000809054906101000a900460ff1660ff166001600060059054906101000a900460ff160160ff1681151561036157fe5b06600060066101000a81548160ff021916908360ff1602179055506001600060018282829054906101000a900460ff160192506101000a81548160ff021916908360ff160217905550600060049054906101000a900460ff1660ff16600060069054906101000a900460ff1660ff161015156103f3576001600060026101000a81548160ff0219169083151502179055505b6001600060019054906101000a900460ff1660ff16141561041657426003819055505b50565b6000806104246101cb565b9150600160008373ffffffffffffffffffffffffffffffffffffffff1673ffffffffffffffffffffffffffffffffffffffff16815260200190815260200160002060009054906101000a900460ff169050600160008373ffffffffffffffffffffffffffffffffffffffff1673ffffffffffffffffffffffffffffffffffffffff16815260200190815260200160002060006101000a81549060ff0219169055600260008260ff1660ff16815260200190815260200160002060006101000a81549073ffffffffffffffffffffffffffffffffffffffff02191690556000809054906101000a900460ff1660ff166001600060049054906101000a900460ff160160ff1681151561053157fe5b06600060046101000a81548160ff021916908360ff160217905550426003819055506001600060018282829054906101000a900460ff160392506101000a81548160ff021916908360ff16021790555060008060019054906101000a900460ff1660ff1614156105b7576001600060036101000a81548160ff0219169083151502179055505b5050565b600080600160003373ffffffffffffffffffffffffffffffffffffffff1673ffffffffffffffffffffffffffffffffffffffff16815260200190815260200160002060009054906101000a900460ff1660ff161415610691573373ffffffffffffffffffffffffffffffffffffffff16600260008060ff16815260200190815260200160002060009054906101000a900473ffffffffffffffffffffffffffffffffffffffff1673ffffffffffffffffffffffffffffffffffffffff1614151561068857600690506106e1565b600090506106e1565b600160003373ffffffffffffffffffffffffffffffffffffffff1673ffffffffffffffffffffffffffffffffffffffff16815260200190815260200160002060009054906101000a900460ff1690505b90565b4260045460035401101515610728577f6aa62f7b11eedcf24457cc45aab0919fa7cce57c5106a42f1bbf3cc527f3832560405160405180910390a1610727610419565b5b565b60008060039054906101000a900460ff169050905600a165627a7a72305820aa83ede68f455fd0dbb45ccd55b1a20edc6253a612d17609c0120663beb0ea160029",
  "source": "pragma solidity ^0.4.15;\n\n/**\n * @title Queue\n * @dev Data structure contract used in `Crowdsale.sol`\n * Allows buyers to line up on a first-in-first-out basis\n * See this example: http://interactivepython.org/courselib/static/pythonds/BasicDS/ImplementingaQueueinPython.html\n */\n\ncontract Queue {\n\t/* State variables */\n\tuint8 size;\n\tuint8 numInside;\n\n\tbool isFull;\n\tbool isEmpty;\n\n    uint8 first;\n    uint8 lastFilled;\n    uint8 nextFree;\n\n    mapping (address => uint8) addr2place;\n    mapping (uint8 => address) place2addr;\n\n    uint timeAsFirst;\n    uint maxTimeinQ = 5 minutes;\n   \t/* Add events */\n\tevent timeEject();\n\n\n\n\t/* Add constructor */\n\tfunction Queue() {\n\t\tsize = 5;\n\n\t\tfirst = 0;\n\t\tlastFilled = 0;\n\t\tisFull = false;\n\t\tisEmpty = true;\n        numInside = 0;\n    }\n\n\t/* Returns the number of people waiting in line */\n\tfunction qsize() constant returns(uint8) {\n\t\treturn numInside;\n\t}\n\n\t/* Returns whether the queue is empty or not */\n\tfunction empty() constant returns(bool) {\n\t\treturn isEmpty;\n\t}\n\t/* Returns the address of the person in the front of the queue */\n\tfunction getFirst() constant returns(address) {\n\t\treturn place2addr[0];\n\t}\n\t/* Allows `msg.sender` to check their position in the queue */\n\tfunction checkPlace() constant returns(uint8) {\n        if (addr2place[msg.sender] == 0) {\n        \tif (place2addr[0] != msg.sender) {\n        \t\treturn 6;\n        \t}\n        \telse {\n        \t\treturn 0;        \t\t\n        \t}\n        }\n        return addr2place[msg.sender];\n\t}\n\t/* Allows anyone to expel the first person in line if their time\n\t * limit is up\n\t */\n\tfunction checkTime() {\n\t\tif (timeAsFirst + maxTimeinQ >= now) {\n\t\t\ttimeEject();\n\t\t\tdequeue();\n\t\t}\n\t}\n\t/* Removes the first person in line; either when their time is up or when\n\t * they are done with their purchase\n\t */\n\tfunction dequeue() {\n\t\taddress firstInLine = getFirst();\n\t\tuint8 firstPlace = addr2place[firstInLine];\n\t\tdelete addr2place[firstInLine];\n\t\tdelete place2addr[firstPlace];\n\t\tfirst = (first + 1) % size;\n\t\ttimeAsFirst = now;\n\t\tnumInside-=1;\n\n\t\tif (numInside == 0) {\n\t\t\tisEmpty = true;\n\n\t\t}\n\t}\n\n\t/* Places `addr` in the first empty position in the queue */\n\tfunction enqueue(address addr) {\n\t\tif (isFull) {\n\t\t\trevert();\n\n\t\t}\n\n        addr2place[addr] = nextFree;\n\t\tplace2addr[nextFree] = addr;\n\t\tlastFilled = nextFree;\n\t\tnextFree = (lastFilled+1) % size;\n\t\tnumInside+=1;\n\n\t\tif (nextFree >= first) {\n\t\t\tisFull = true;\n\t\t}\n\n\t\tif (numInside == 1) {\n\t\t\ttimeAsFirst = now;\n\t\t}\n\n\t}    \n\n\n}\n",
  "sourcePath": "/Users/adithyaj/Documents/tech/active/sp18-midterm-p1/contracts/Queue.sol",
  "compiler": {
    "name": "solc",
    "version": "0.4.19+commit.c4cbbb05.Emscripten.clang"
  },
  "schemaVersion": "1.0.1",
  "updatedAt": "2018-03-10T20:35:47.874Z"
}